{
  "contractName": "DualitySwapForwardVirtualContract",
  "abi": [
    {
      "inputs": [
        {
          "internalType": "string",
          "name": "creator",
          "type": "string"
        },
        {
          "internalType": "string",
          "name": "receiver",
          "type": "string"
        },
        {
          "internalType": "string",
          "name": "tokenIn",
          "type": "string"
        },
        {
          "internalType": "string",
          "name": "tokenOut",
          "type": "string"
        },
        {
          "internalType": "int64",
          "name": "tickIndex",
          "type": "int64"
        },
        {
          "internalType": "uint256",
          "name": "amountIn",
          "type": "uint256"
        },
        {
          "internalType": "enum DualitySwapForwardVirtualContract.LimitOrderType",
          "name": "orderType",
          "type": "uint8"
        },
        {
          "internalType": "uint256",
          "name": "expirationTime",
          "type": "uint256"
        },
        {
          "internalType": "bool",
          "name": "nonRefundable",
          "type": "bool"
        },
        {
          "internalType": "string",
          "name": "refundAddress",
          "type": "string"
        },
        {
          "internalType": "bytes",
          "name": "nextArgs",
          "type": "bytes"
        }
      ],
      "name": "swapAndForward",
      "outputs": [],
      "stateMutability": "nonpayable",
      "type": "function"
    }
  ],
  "bytecode": "0x608060405234801561001057600080fd5b506104f2806100206000396000f3fe608060405234801561001057600080fd5b506004361061002b5760003560e01c806398433f7014610030575b600080fd5b61004a60048036038101906100459190610320565b61004c565b005b5050505050505050505050565b6000604051905090565b600080fd5b600080fd5b600080fd5b600080fd5b6000601f19601f8301169050919050565b7f4e487b7100000000000000000000000000000000000000000000000000000000600052604160045260246000fd5b6100c082610077565b810181811067ffffffffffffffff821117156100df576100de610088565b5b80604052505050565b60006100f2610059565b90506100fe82826100b7565b919050565b600067ffffffffffffffff82111561011e5761011d610088565b5b61012782610077565b9050602081019050919050565b82818337600083830152505050565b600061015661015184610103565b6100e8565b90508281526020810184848401111561017257610171610072565b5b61017d848285610134565b509392505050565b600082601f83011261019a5761019961006d565b5b81356101aa848260208601610143565b91505092915050565b60008160070b9050919050565b6101c9816101b3565b81146101d457600080fd5b50565b6000813590506101e6816101c0565b92915050565b6000819050919050565b6101ff816101ec565b811461020a57600080fd5b50565b60008135905061021c816101f6565b92915050565b6005811061022f57600080fd5b50565b60008135905061024181610222565b92915050565b60008115159050919050565b61025c81610247565b811461026757600080fd5b50565b60008135905061027981610253565b92915050565b600067ffffffffffffffff82111561029a57610299610088565b5b6102a382610077565b9050602081019050919050565b60006102c36102be8461027f565b6100e8565b9050828152602081018484840111156102df576102de610072565b5b6102ea848285610134565b509392505050565b600082601f8301126103075761030661006d565b5b81356103178482602086016102b0565b91505092915050565b60008060008060008060008060008060006101608c8e03121561034657610345610063565b5b60008c013567ffffffffffffffff81111561036457610363610068565b5b6103708e828f01610185565b9b505060208c013567ffffffffffffffff81111561039157610390610068565b5b61039d8e828f01610185565b9a505060408c013567ffffffffffffffff8111156103be576103bd610068565b5b6103ca8e828f01610185565b99505060608c013567ffffffffffffffff8111156103eb576103ea610068565b5b6103f78e828f01610185565b98505060806104088e828f016101d7565b97505060a06104198e828f0161020d565b96505060c061042a8e828f01610232565b95505060e061043b8e828f0161020d565b94505061010061044d8e828f0161026a565b9350506101208c013567ffffffffffffffff81111561046f5761046e610068565b5b61047b8e828f01610185565b9250506101408c013567ffffffffffffffff81111561049d5761049c610068565b5b6104a98e828f016102f2565b9150509295989b509295989b909396995056fea26469706673582212203485885ee7bfa5c5c7a0d142241114e923d83af7d1a87e6761668931ebd5286364736f6c63430008130033",
  "immutableReferences": {},
  "source": "pragma solidity ^0.8.0;\n\ncontract DualitySwapForwardVirtualContract {\n\n  enum LimitOrderType { \n    GOOD_TIL_CANCELLED,\n    FILL_OR_KILL,\n    IMMEDIATE_OR_CANCEL,\n    JUST_IN_TIME,\n    GOOD_TIL_TIME\n  }\n\n\tfunction swapAndForward(\n    string memory creator,\n    string memory receiver,\n    string memory tokenIn,\n    string memory tokenOut,\n    int64 tickIndex,\n    uint256 amountIn,\n    LimitOrderType orderType,\n    // expirationTime is only valid iff orderType == GOOD_TIL_TIME.\n    uint expirationTime,\n    bool nonRefundable,\n\t  string memory refundAddress,\n    // should be a json-encoded \"forward\" memo\n    // {\n    //   receiver: \"<bech32 addr>\",\n    //   port: \"<port name>\",\n    //   channel: \"channel-<id>\",\n    //   timeout: <timeout integer?>,\n    //   retries: <num retries>,\n    //   next: \"<optionally include another memo for execution once the result has been forwarded>\"\n    // }\n\t  bytes memory nextArgs\n  ) public {}\n\n}",
  "sourcePath": "/usr/src/app/contracts/DualitySwapForwardVirtualContract.sol",
  "compiler": {
    "name": "solc",
    "version": "0.8.19+commit.7dd6d404.Emscripten.clang"
  },
  "schemaVersion": "3.4.13",
  "updatedAt": "2023-05-11T16:46:06.837Z",
  "devdoc": {
    "kind": "dev",
    "methods": {},
    "version": 1
  },
  "userdoc": {
    "kind": "user",
    "methods": {},
    "version": 1
  }
}